:03000000020800F3
:0C080000787FE4F6D8FD758119020847E6
:100955000208000002160000021400000A0A40798D
:08096500243019120278001081
:10088C00D2B0C2B1AE08AF097C007D0A1209008C4F
:10089C00168D17AE08AF097C007D0A1209008E1464
:1008AC008F15740A2517F8E6F5A0E4F518F5190567
:1008BC0019E51970020518B420F5E518B44EF0C20C
:1008CC00B0D2B1740A2515F8E6F5A0E4F518F519BF
:1008DC000519E51970020518B420F5E518B44EF0A9
:1008EC000509E50970020508646445087092F5086D
:0408FC00F509808CEE
:10080C0002088CE493A3F8E493A34003F68001F26E
:10081C0008DFF48029E493A3F85407240CC8C333ED
:10082C00C4540F4420C8834004F456800146F6DFBC
:10083C00E4800B0102040810204080900955E47EEE
:10084C00019360BCA3FF543F30E509541FFEE493B1
:10085C00A360010ECF54C025E060A840B8E493A378
:10086C00FAE493A3F8E493A3C8C582C8CAC583CAA3
:10087C00F0A3C8C582C8CAC583CADFE9DEE780BE5B
:01096D000089
:10090000BC000BBE0029EF8DF084FFADF022E4CCDB
:10091000F875F008EF2FFFEE33FEEC33FCEE9DECA4
:10092000984005FCEE9DFE0FD5F0E9E4CEFD22EDEA
:10093000F8F5F0EE8420D21CFEADF075F008EF2F34
:10094000FFED33FD4007985006D5F0F222C398FD25
:050950000FD5F0EA22C2
:00000001FF
