:03000000020800F3
:0C080000787FE4F6D8FD758109020847F6
:0C08A700D2B3C2B4D2B420B2FDC2B3225E
:10088C00758920758DFD759850E4F587D28E120808
:0B089C00A78590993099FDC29980F368
:10080C00020000E493A3F8E493A34003F68001F202
:10081C0008DFF48029E493A3F85407240CC8C333ED
:10082C00C4540F4420C8834004F456800146F6DFBC
:10083C00E4800B01020408102040809008B3E47E91
:10084C00019360BCA3FF543F30E509541FFEE493B1
:10085C00A360010ECF54C025E060A840B8E493A378
:10086C00FAE493A3F8E493A3C8C582C8CAC583CAA3
:10087C00F0A3C8C582C8CAC583CADFE9DEE780BE5B
:0108B3000044
:00000001FF
