:03000000020A13DE
:0C0A1300787FE4F6D8FD758114020A5AC1
:040BBD00020E000024
:10080000120BB2120B06120B798F10E510B4431BBA
:100810007F017E00120B67750A6E75096E75086E92
:10082000E4F50CF50DF50EF50F80DBE510643D6089
:1008300003020928AF10120B92E509B47823AF0A1E
:10084000EF3395E0FEEF24D0FDEE34FFFCAF08EF70
:100850003395E0FEEF24D0FFEE34FFFE120A9F80B6
:1008600026E509B42F27AF0AEF3395E0FEEF24D039
:10087000FDEE34FFFCAF08EF3395E0FEEF24D0FF30
:10088000EE34FFFE120AB18E0C8F0D8057E509B4CD
:100890002B27AF0AEF3395E0FEEF24D0FFEE34FFB5
:1008A000FEAD08ED3395E0FCED24D0FDEC34FFCD3A
:1008B0002FF50DED3EF50C802BE509B42D26AF0A82
:1008C000EF3395E0FEEF24D0FFEE34FFFEAD08EDF0
:1008D0003395E0FCED24D0FDEC34FFCDC39FF50D46
:0F08E000ED9EF50CD3E50D9409E50C9400402C2A
:1008EF00AE0CAF0D7C007D0A120AB18E118F12AEC5
:1008FF000CAF0D7C007D0A120AB18C138D14E5121A
:0A090F002430F50BFF120B92E514E3
:100919008002E50D2430F50BFF120B92020806AF99
:0709290010120B92020806F8
:0B0BB200E4F5807590F0F5A0F5B0228E
:040B44007F107E2779
:100B4800E4FDFCC3ED9FEE6480F8EC6480985007E8
:070B58000DBD00010C80EC53
:010B5F002273
:100B9200D2B78FA0D2B67F967E00120B48C2B602A1
:020BA2000B48FE
:070B6000120B487F307E00FC
:100B6700C2B78FA0D2B67F967E00120B48C2B602DC
:020B77000B4829
:100B06007F987E3A120B607F947E11120B607F2CC9
:100B16007E01120B487F301E120B677F8A7E0212FF
:100B26000B487F387E00120B677F0C7E00120B6726
:0E0B36007F017E00120B677F067E00020B67B8
:0E0BA4007F027E00120B677FDC7E05020B488D
:10093000C290D291D292D293209409120B44309457
:10094000FD7F3722209509120B443095FD7F382218
:10095000209609120B443096FD7F39222097091208
:100960000B443097FD7F2F22D290C291D292D29326
:10097000209409120B443094FD7F342220950912F3
:100980000B443095FD7F3522209609120B4430969A
:10099000FD7F3622209709120B443097FD7F782285
:1009A000D290D291C292D293209409120B443094E7
:1009B000FD7F3122209509120B443095FD7F3222B4
:1009C000209609120B443096FD7F3322209709129E
:1009D0000B443097FD7F2D22D290D291D292C293B8
:1009E000209409120B443094FD7F43222095091274
:1009F0000B443095FD7F3022209609120B4430962F
:100A0000FD7F3D22209709120B443097FD7F2B225A
:030A10007F6E22D4
:100B79007F6EBF6E0512093080F8050FE50F700210
:080B8900050E142408F8A6076C
:010B91002241
:100A1F00020800E493A3F8E493A34003F68001F2E5
:100A2F0008DFF48029E493A3F85407240CC8C333D8
:100A3F00C4540F4420C8834004F456800146F6DFA7
:100A4F00E4800B0102040810204080900BBDE47E6F
:100A5F00019360BCA3FF543F30E509541FFEE4939C
:100A6F00A360010ECF54C025E060A840B8E493A363
:100A7F00FAE493A3F8E493A3C8C582C8CAC583CA8E
:100A8F00F0A3C8C582C8CAC583CADFE9DEE780BE46
:010BC1000033
:100A9F00EF8DF0A4A8F0CF8CF0A428CE8DF0A42E6B
:020AAF00FE2225
:100AB100BC000BBE0029EF8DF084FFADF022E4CC29
:100AC100F875F008EF2FFFEE33FEEC33FCEE9DECF2
:100AD100984005FCEE9DFE0FD5F0E9E4CEFD22ED38
:100AE100F8F5F0EE8420D21CFEADF075F008EF2F82
:100AF100FFED33FD4007985006D5F0F222C398FD73
:050B01000FD5F0EA220F
:00000001FF
