:03000000020A9B56
:0C0A9B00787FE4F6D8FD758114020AE2B1
:040C310002080000B5
:10080000120B8E120C267F947E00120BD37F4112A6
:100810000C147F53120C147F48120C147F46120CD8
:10082000147F41120C147F51120C147F20120C14EF
:100830007F41120C147F48120C147F4D120C147F50
:1008400041120C147F44120C147FD47E00120BD37F
:100850007F4D120C147F42120C147F53120C147F24
:1008600044120C147F20120C147F54120C147F417C
:10087000120C147F53120C147F4B120C147F301285
:100880000C147F36120C147F807E00120BD3120BD7
:10089000E58F10E510B4431B7F017E00120BD3756A
:1008A0000D6E750C6E750B6EE4F50EF50FF508F513
:1008B0000980DBE510643D60030209B07F3D120C46
:1008C00014E50CB42B28AF0DEF3395E0FEEF24D0E8
:1008D000FFEE34FFFEAD0BED3395E0FCED24D0FDD3
:1008E000EC34FFCD2FF50FED3EF50E02096DE50C52
:1008F000B42D28AF0DEF3395E0FEEF24D0FFEE349A
:10090000FFFEAD0BED3395E0FCED24D0FDEC34FFA4
:10091000CDC39FF50FED9EF50E8052E50CB4782304
:10092000AF0DEF3395E0FEEF24D0FDEE34FFFCAFCA
:100930000BEF3395E0FEEF24D0FFEE34FFFE120BF9
:10094000278026E50CB42F25AF0DEF3395E0FEEFA1
:1009500024D0FDEE34FFFCAF0BEF3395E0FEEF2427
:10096000D0FFEE34FFFE120B398E0E8F0FD3E50F42
:080970009409E50E9400402BF0
:10097800AE0EAF0F7C007D0A120B398C118D12AEB2
:100988000EAF0F7C007D0A120B398E138F14EF24E3
:0909980030F50AFF120C14E512FF
:1009A1008002E50F2430F50AFF120C1402088EAF05
:0709B10010120C1402088E65
:040BFE007F107E27BF
:100C0200E4FDFCC3ED9FEC9E50070DBD00010C807E
:010C1200F2EF
:010C130022BE
:070BCC00120C027F307E00D5
:100BD300C2B08FA0D2B17F967E00120C02C2B102C6
:020BE3000C0202
:100C1400D2B08FA0D2B17F967E00120C02C2B10274
:020C24000C02C0
:100B8E007F987E3A120BCC7F947E11120BCC7F2C69
:100B9E007E01120C027F301E120BD37F8A7E021250
:100BAE000C027F387E00120BD37F0C7E00120BD30B
:0E0BBE007F017E00120BD37F067E00020BD358
:0B0C2600E4F5A07590F0C2B1C2B0224E
:1009B800C290D291D292D293209409120BFE309415
:1009C800FD7F3722209509120BFE3095FD7F3822D6
:1009D800209609120BFE3096FD7F392220970912C6
:1009E8000BFE3097FD7F2F22D290C291D292D293E4
:1009F800209409120BFE3094FD7F342220950912B1
:100A08000BFE3095FD7F3522209609120BFE30969D
:100A1800FD7F3622209709120BFE3097FD7F782242
:100A2800D290D291C292D293209409120BFE3094A4
:100A3800FD7F3122209509120BFE3095FD7F322271
:100A4800209609120BFE3096FD7F3322209709125B
:100A58000BFE3097FD7F2D22D290D291D292C29375
:100A6800209409120BFE3094FD7F43222095091231
:100A78000BFE3095FD7F3022209609120BFE309632
:100A8800FD7F3D22209709120BFE3097FD7F2B2218
:030A98007F6E224C
:100BE5007F6EBF6E051209B880F80509E509700228
:080BF500050814240BF8A60703
:010BFD0022D5
:100AA700020800E493A3F8E493A34003F68001F25D
:100AB70008DFF48029E493A3F85407240CC8C33350
:100AC700C4540F4420C8834004F456800146F6DF1F
:100AD700E4800B0102040810204080900C31E47E72
:100AE700019360BCA3FF543F30E509541FFEE49314
:100AF700A360010ECF54C025E060A840B8E493A3DB
:100B0700FAE493A3F8E493A3C8C582C8CAC583CA05
:100B1700F0A3C8C582C8CAC583CADFE9DEE780BEBD
:010C350000BE
:100B2700EF8DF0A4A8F0CF8CF0A428CE8DF0A42EE2
:020B3700FE229C
:100B3900BC000BBE0029EF8DF084FFADF022E4CCA0
:100B4900F875F008EF2FFFEE33FEEC33FCEE9DEC69
:100B5900984005FCEE9DFE0FD5F0E9E4CEFD22EDAF
:100B6900F8F5F0EE8420D21CFEADF075F008EF2FF9
:100B7900FFED33FD4007985006D5F0F222C398FDEA
:050B89000FD5F0EA2287
:00000001FF
