:030000000208955E
:0C089500787FE4F6D8FD7581070208A109
:080841008FA0D2B67F907E016A
:10084900E4FDFCC3ED9FEC9E50070DBD00010C803B
:01085900F2AC
:01085A00227B
:0508860012088B7F4108
:0A088B00D2B7120841C2B6020849B4
:0A08AC00C2B7120841C2B6020849A3
:100871007F0C7E001208AC7F017E001208AC7F065F
:050881007E000208AC3E
:100800007F4112088B7F5312088B7F4812088B7F21
:10081000461208867F5112088B7F201208867F4877
:1008200012088B7F4D1208867F4412088B7F20129E
:10083000088B7F4D12088B7F5312088B7F44020870
:010840008B2C
:10085B007590F07FC87E00120849E4F5A012084994
:06086B00E4F5B0020849AB
:0B08A10012085B12087112080080FBB7
:00000001FF
