:030000000208C42F
:0C08C400787FE4F6D8FD75811D02090B59
:100A57000A0CC0F9A4B0999282F88090021600009F
:0C0A670002180000021A0000021C00002F
:03001B00020A31A5
:100A3100C0E0C0D0051DE51D7002051CB4880CE5A1
:100A41001CB4130775A800D2B18006758DD1758BC2
:060A51001FD0D0D0E032FE
:030003000209A54A
:1009A500C0E0C0F0C0D075D000C000C004C005C014
:1009B50006C007AE16AF177C007D0A1209508D0AD6
:1009C500AE16AF177C007D0A1209508F080517E592
:1009D5001770020516D007D006D005D004D000D078
:0609E500D0D0F0D0E0329A
:030013000209EBF4
:1009EB00C0E0C0F0C0D075D000C000C004C005C0CE
:1009FB0006C007AE18AF197C007D0A1209508D0B8B
:100A0B00AE18AF197C007D0A1209508F090519E544
:100A1B001970020518D007D006D005D004D000D02D
:060A2B00D0D0F0D0E03253
:030A7400D28E22FD
:10080000D2B2D2B3C2B1E4F590F5A0D288D28A7543
:10081000A88D758910758DD1758B1F120A74E4F53A
:100820001AF51B051BE51B7002051AB4A0F5E51AA5
:10083000B40FF0D2B6C2B7740C250AF8E6F590E40E
:10084000F51AF51B051BE51B7002051AB4A0F5E5AA
:100850001AB40FF0C2B6D2B7740C2508F8E6F590BA
:10086000E517646445167004F516F517E4F51AF5F6
:100870001B051BE51B7002051AB4A0F5E51AB40FA1
:10088000F0D2B4C2B5740C250BF8E6F5A0E4F51A65
:10089000F51B051BE51B7002051AB4A0F5E51AB49B
:1008A0000FF0C2B4D2B5740C2509F8E6F5A0E5192D
:1008B00064A07004E518640F600302081EF518F5C3
:0408C0001902081EF3
:1008D000020800E493A3F8E493A34003F68001F236
:1008E00008DFF48029E493A3F85407240CC8C33329
:1008F000C4540F4420C8834004F456800146F6DFF8
:10090000E4800B0102040810204080900A57E47E26
:10091000019360BCA3FF543F30E509541FFEE493EC
:10092000A360010ECF54C025E060A840B8E493A3B3
:10093000FAE493A3F8E493A3C8C582C8CAC583CADE
:10094000F0A3C8C582C8CAC583CADFE9DEE780BE96
:010A73000082
:10095000BC000BBE0029EF8DF084FFADF022E4CC8B
:10096000F875F008EF2FFFEE33FEEC33FCEE9DEC54
:10097000984005FCEE9DFE0FD5F0E9E4CEFD22ED9A
:10098000F8F5F0EE8420D21CFEADF075F008EF2FE4
:10099000FFED33FD4007985006D5F0F222C398FDD5
:0509A0000FD5F0EA2272
:00000001FF
