:03000000020800F3
:0C080000787FE4F6D8FD758109020847F6
:0408B9000208000031
:0300030002089F51
:0D089F00C0E0E509150970021508D0E0322F
:030013000208AC34
:0D08AC00C0E00509E50970020508D0E03242
:10088C00D2AFD2A8D2AAD288D28AC2B8D2BA85099B
:03089C009080FB4E
:10080C0002088CE493A3F8E493A34003F68001F26E
:10081C0008DFF48029E493A3F85407240CC8C333ED
:10082C00C4540F4420C8834004F456800146F6DFBC
:10083C00E4800B01020408102040809008B9E47E8B
:10084C00019360BCA3FF543F30E509541FFEE493B1
:10085C00A360010ECF54C025E060A840B8E493A378
:10086C00FAE493A3F8E493A3C8C582C8CAC583CAA3
:10087C00F0A3C8C582C8CAC583CADFE9DEE780BE5B
:0108BD00003A
:00000001FF
