:03000000020940B2
:0C094000787FE4F6D8FD758109020800FC
:08092700D2917DFEFC7FDBFE96
:10092F007589018F8C8D8AD28C308DFDC28CC28DD2
:01093F002295
:10080000E4FBFAD2922092050BBB00010A7C007D2A
:1008100004AF03AE0212089CED4C7026120927C2E9
:1008200091F5087509017DFE7C007FDB7E001209D1
:100830002F0509E50970020508C3940AE50894002C
:1008400040E47C007D04AF03AE0212089CED64011D
:100850004C700B120927C2911D7F6F12092F7C006B
:100860007D04AF03AE0212089CED64024C700B12C3
:100870000927C2910D7FC912092F7C007D04AF03A7
:10088000AE0212089CED64034C60030208051209D5
:0C08900027C2910D7FF612092F02080507
:10089C00C2D5EC30E709B2D5E4C39DFDE49CFCEE77
:1008AC0030E715B2D5E4C39FFFE49EFE1208D2C315
:1008BC00E49DFDE49CFC80031208D230D507C3E410
:0608CC009FFFE49EFE22E6
:1008D200BC000BBE0029EF8DF084FFADF022E4CC0A
:1008E200F875F008EF2FFFEE33FEEC33FCEE9DECD3
:1008F200984005FCEE9DFE0FD5F0E9E4CEFD22ED19
:10090200F8F5F0EE8420D21CFEADF075F008EF2F62
:10091200FFED33FD4007985006D5F0F222C398FD53
:050922000FD5F0EA22F0
:00000001FF
