:03000000020800F3
:0C080000787FE4F6D8FD758109020847F6
:0408B8000208000032
:03000B0002089E4A
:0D089E00C0E00509E50970020508D0E03250
:030013000208AB35
:0D08AB00C0E0E509150970021508D0E03223
:10088C0043B00CD2A8D2AAD2AFD288C28A85099022
:02089C0080FBDF
:10080C0002088CE493A3F8E493A34003F68001F26E
:10081C0008DFF48029E493A3F85407240CC8C333ED
:10082C00C4540F4420C8834004F456800146F6DFBC
:10083C00E4800B01020408102040809008B8E47E8C
:10084C00019360BCA3FF543F30E509541FFEE493B1
:10085C00A360010ECF54C025E060A840B8E493A378
:10086C00FAE493A3F8E493A3C8C582C8CAC583CAA3
:10087C00F0A3C8C582C8CAC583CADFE9DEE780BE5B
:0108BC00003B
:00000001FF
