:030000000208C033
:0C08C000787FE4F6D8FD7581230209075B
:100A06001408003F0006005B004F0066006D007D85
:060A16000007007F006FE5
:0F09D700E51D25E02408F808E6F5A07F017E0065
:1009E600E4FDFCC3ED9FEC9E5015E4FBFA0BBB0047
:0F09F600010AEB647B4A70F50DBD00010C80E433
:010A050022CE
:10080000E4F51EF51FE4F522F523851E20851F2142
:10081000AE20AF217C037DE812094C8E1C8F1DAEEB
:1008200020AF217C037DE812094C8C208D2175B00E
:10083000FE1209D7AE20AF217C007D6412094C8ED8
:100840001C8F1DAE20AF217C007D6412094C8C20D2
:100850008D2175B0FD1209D7AE20AF217C007D0A35
:1008600012094C8E1C8F1D75B0FB1209D7AE20AF3C
:10087000217C007D0A12094C8C1C8D1D75B0F7E59A
:100880001D25E02408F808E6F5A07F087E0012097F
:10089000E60523E52370020522C39414E522648053
:1008A0009480500302080A051FE51F7002051ED33D
:1008B000940FE51E648094A7500302080502080007
:1008CC00020800E493A3F8E493A34003F68001F23A
:1008DC0008DFF48029E493A3F85407240CC8C3332D
:1008EC00C4540F4420C8834004F456800146F6DFFC
:1008FC00E4800B0102040810204080900A06E47E7C
:10090C00019360BCA3FF543F30E509541FFEE493F0
:10091C00A360010ECF54C025E060A840B8E493A3B7
:10092C00FAE493A3F8E493A3C8C582C8CAC583CAE2
:10093C00F0A3C8C582C8CAC583CADFE9DEE780BE9A
:010A1C0000D9
:10094C00C2D5EC30E709B2D5E4C39DFDE49CFCEEC6
:10095C0030E715B2D5E4C39FFFE49EFE120982C3B3
:10096C00E49DFDE49CFC800312098230D507C3E4AE
:06097C009FFFE49EFE2235
:10098200BC000BBE0029EF8DF084FFADF022E4CC59
:10099200F875F008EF2FFFEE33FEEC33FCEE9DEC22
:1009A200984005FCEE9DFE0FD5F0E9E4CEFD22ED68
:1009B200F8F5F0EE8420D21CFEADF075F008EF2FB2
:1009C200FFED33FD4007985006D5F0F222C398FDA3
:0509D2000FD5F0EA2240
:00000001FF
