:03000000020800F3
:0C080000787FE4F6D8FD758109020847F6
:040961000208000088
:06093D00D2A07D187FFC32
:100943007589018F8C8D8AD28C308DFDC28DC28CBE
:010953002281
:030003000209549B
:0D095400C0E00509E50970020508D0E03299
:10088C0075A881D288D2A0D2B2AE08AF097C007D07
:10089C00031208E8AA04AB05EB4A700B12093DC21F
:1008AC00A07D487FF4800BEB64014A700A12093D6D
:1008BC00C2A012094380D2AE08AF097C007D03129E
:1008CC0008E8ED64024C70C1D2A07D127FFD1209C4
:0C08DC0043C2A07D067FFF12094380ADDF
:10080C0002088CE493A3F8E493A34003F68001F26E
:10081C0008DFF48029E493A3F85407240CC8C333ED
:10082C00C4540F4420C8834004F456800146F6DFBC
:10083C00E4800B0102040810204080900961E47EE2
:10084C00019360BCA3FF543F30E509541FFEE493B1
:10085C00A360010ECF54C025E060A840B8E493A378
:10086C00FAE493A3F8E493A3C8C582C8CAC583CAA3
:10087C00F0A3C8C582C8CAC583CADFE9DEE780BE5B
:010965000091
:1008E800BC000BBE0029EF8DF084FFADF022E4CCF4
:1008F800F875F008EF2FFFEE33FEEC33FCEE9DECBD
:10090800984005FCEE9DFE0FD5F0E9E4CEFD22ED02
:10091800F8F5F0EE8420D21CFEADF075F008EF2F4C
:10092800FFED33FD4007985006D5F0F222C398FD3D
:050938000FD5F0EA22DA
:00000001FF
