:03000000020800F3
:0C080000787FE4F6D8FD758117020847E8
:10099000020A0000020800000A0C407924301912F3
:0409A00002780010C9
:0709A500758906E4F58A22C2
:0309AC00D28C22C8
:10091700E4FBFAD2B41209A51209ACD2B0C2B1AF46
:100927008A7A00AB077C007D0A7E0012088C8C0A4D
:100937008D0B7C007D0AAF037E0012088C8E088F1A
:1009470009740C250BF8E6F5A0E4F516F51705175D
:10095700E51770020516B410F5E516B427F0C2B016
:10096700D2B1740C2509F8E6F5A0E4F516F51705DC
:1009770017E51770020516B410F5E516B427F0EB66
:0909870064644A7096F58A8092BE
:10080C00020917E493A3F8E493A34003F68001F2E2
:10081C0008DFF48029E493A3F85407240CC8C333ED
:10082C00C4540F4420C8834004F456800146F6DFBC
:10083C00E4800B0102040810204080900990E47EB3
:10084C00019360BCA3FF543F30E509541FFEE493B1
:10085C00A360010ECF54C025E060A840B8E493A378
:10086C00FAE493A3F8E493A3C8C582C8CAC583CAA3
:10087C00F0A3C8C582C8CAC583CADFE9DEE780BE5B
:0109A4000052
:10088C00C2D5EC30E709B2D5E4C39DFDE49CFCEE87
:10089C0030E715B2D5E4C39FFFE49EFE1208C2C335
:1008AC00E49DFDE49CFC80031208C230D507C3E430
:0608BC009FFFE49EFE22F6
:1008C200BC000BBE0029EF8DF084FFADF022E4CC1A
:1008D200F875F008EF2FFFEE33FEEC33FCEE9DECE3
:1008E200984005FCEE9DFE0FD5F0E9E4CEFD22ED29
:1008F200F8F5F0EE8420D21CFEADF075F008EF2F73
:10090200FFED33FD4007985006D5F0F222C398FD63
:050912000FD5F0EA2200
:00000001FF
